:100000000C9459010C948A010C948A010C948A0175
:100010000C948A010C948A010C948A010C948A0134
:100020000C948A010C948A010C948A010C948A0124
:100030000C948A010C948A010C948A010C948A0114
:100040000C948A010C948A010C948A010C948A0104
:100050000C948A010C948A010C948A010C94B503C7
:100060000C948A010C9429040C94FF030C948A01CB
:100070000C948A010C948A010C948A010C948A01D4
:100080000C948A010C948A010C948A010C948A01C4
:100090000C948A010C948A010C948A010C948A01B4
:1000A0000C948A010C948A010C948A010C948A01A4
:1000B0000C948A010C948A010C948A010C948A0194
:1000C0000C948A010C948A010C948A010C948A0184
:1000D0000C948A010C948A010C948A010C948A0174
:1000E0000C948A0105A84CCDB2D44EB93836A90279
:1000F0000C50B9918688083CA6AAAA2ABE00000026
:10010000803F0C9442060C946A060C94EF010C9408
:10011000F1050C9429060C941C020C9430020C94EA
:1001200004020C9456060C9418020C94FA010C94D8
:1001300020020C9400020C940A020C9403060C9406
:1001400003070C94F7010C94F3010C944C060C94E7
:100150005D020C948E020C94FB050C94D9010C9456
:1001600026020C94C6020C94E7050C941F060C940E
:10017000EB010C94DD050C940E020C942A020C94F5
:100180000B060C9412020C94D4010C9415060C94DA
:100190006C020C9438060C94D3050C9413030C9445
:1001A000D8050C9480020C94600600000A0B02092A
:1001B0000C0D0E0807030401000000000000000001
:1001C000000000000000000000000000000000002F
:1001D00000000000000012111000000000000000EC
:1001E000000000000000000000000000000000000F
:1001F00000002200250028002B002E0031003400D2
:1002000002010000050108010B010000210024008B
:1002100027002A002D0030003300010100000401F6
:1002200007010A0105050505070508080808020277
:1002300002020A0A08080404040401010101010180
:1002400001010303030303030303040707070C0C63
:100250000C0C0C0C0C0C020202020606060606062A
:1002600006060B0B0B0B0B0B0B0B010210202008CF
:100270000810204010204080020102010804020101
:100280000102040810204080804020100804020170
:1002900080040201804020100804020108040201C9
:1002A0000102040810204080010204081020408050
:1002B000030711241FBECFEFD1E2DEBFCDBF00E0A8
:1002C0000CBF12E0A0E0B2E0EEE5F4E100E00BBF0D
:1002D00002C007900D92A232B107D9F722E0A2E244
:1002E000B2E001C01D92A03DB207E1F711E0C9E5FF
:1002F000D1E000E006C021970109802FFE010E9495
:10030000250AC835D10780E00807A9F70E945F04D5
:100310000C942D0A0C940000ECE6F2E02491E6E245
:10032000F2E08491882399F090E0880F991FFC01F6
:10033000E65FFD4FA591B491FC01E051FE4F859120
:1003400094918FB7F894EC91E22BEC938FBF0895C2
:10035000382FECEAF1E08491ECE6F2E02491E6E259
:10036000F2E09491992309F435C0882311F181506A
:100370008231F8F4E82FF0E08827EE53FE4F8F4FDC
:100380000C94250AF301F701D401EB01EF01D90127
:10039000FA01000204020A020E02120218021C02F2
:1003A000D901200226022A02809180008F77809353
:1003B0008000E92FF0E0EE0FFF1FE051FE4FA59106
:1003C000B4918FB7F894EC91311148C020952E2349
:1003D0002C938FBF0895809180008F7DE8CF80910E
:1003E0008000877FE4CF84B58F7784BDE2CF84B56A
:1003F0008F7DFBCF8091B0008F778093B000D9CFF5
:100400008091B0008F7DF9CF809190008F7780939D
:100410009000CFCF809190008F7DF9CF8091900098
:10042000877FF5CF8091A0008F778093A000C1CF08
:100430008091A0008F7DF9CF8091A000877FF5CFBC
:10044000809120018F7780932001B3CF809120018C
:100450008F7DF9CF80912001877FF5CF2E2BB8CFEC
:10046000AF92BF92CF92DF92EF92FF920F931F93C2
:10047000CF93DF936C017B018B01040F151FEB0100
:100480005E01AE18BF08C017D10759F06991D601B7
:10049000ED91FC910190F081E02DC6011995892B19
:1004A00079F7C501DF91CF911F910F91FF90EF90E8
:1004B000DF90CF90BF90AF900895FC01538D448D95
:1004C000252F30E0842F90E0821B930B541710F0FF
:1004D000CF96089501970895FC01918D828D98170C
:1004E00061F0A28DAE0FBF2FB11D5D968C91928DE4
:1004F0009F5F9F73928F90E008958FEF9FEF089515
:10050000FC01918D828D981731F0828DE80FF11DDD
:10051000858D90E008958FEF9FEF0895FC01918DF8
:10052000228D892F90E0805C9F4F821B91098F73F1
:100530009927089583E392E00E948E0221E0892B9F
:1005400009F420E0822F0895FC01A48DA80FB92F93
:10055000B11DA35ABF4F2C91848D90E001968F73EB
:100560009927848FA689B7892C93A089B1898C910A
:10057000837080648C93938D848D981306C0028859
:10058000F389E02D80818F7D80830895EF92FF9223
:100590000F931F93CF93DF93EC0181E0888F9B8DA6
:1005A0008C8D98131AC0E889F989808185FF15C060
:1005B0009FB7F894EE89FF896083E889F989808183
:1005C0008370806480839FBF81E090E0DF91CF9152
:1005D0001F910F91FF90EF900895F62E0B8D10E074
:1005E0000F5F1F4F0F731127E02E8C8D8E110CC0E3
:1005F0000FB607FCFACFE889F989808185FFF5CF2E
:10060000CE010E94A402F1CFEB8DEC0FFD2FF11D66
:10061000E35AFF4FF0829FB7F8940B8FEA89FB896A
:1006200080818062CFCFCF93DF93EC01888D8823C8
:10063000B9F0AA89BB89E889F9898C9185FD03C045
:10064000808186FD0DC00FB607FCF7CF8C9185FF2A
:10065000F2CF808185FFEDCFCE010E94A402E9CFC9
:10066000DF91CF91089580E090E0892B29F00E94DE
:100670009A0281110E94000080E090E0892B49F0ED
:1006800080E090E0892B29F00E94000081110E94F7
:10069000000080E090E0892B49F080E090E0892B19
:1006A00029F00E94000081110E94000080E090E08B
:1006B000892B49F080E090E0892B29F00E9400000E
:1006C00081110C9400000895FC0101900020E9F7CD
:1006D0003197AF01481B590BBC0183E392E00C94A6
:1006E00030028F929F92AF92BF920F931F93CF933E
:1006F000DF93CDB7DEB7A1970FB6F894DEBF0FBE7C
:10070000CDBF19A2423008F44AE08E010F5D1F4FA1
:10071000842E912CB12CA12CA50194010E94030AD6
:10072000E62FB901CA01EA30F4F4E05DD801EE9396
:100730008D01232B242B252B79F790E080E0109757
:1007400019F0CD010E946403A1960FB6F894DEBFA4
:100750000FBECDBFDF91CF911F910F91BF90AF9092
:100760009F908F900895E95CE1CF1F920F920FB692
:100770000F9211242F933F938F939F93AF93BF9327
:1007800080912F0290913002A0913102B0913202FB
:1007900030912E0223E0230F2D3758F50196A11D2D
:1007A000B11D20932E0280932F0290933002A093CC
:1007B0003102B093320280912A0290912B02A091D3
:1007C0002C02B0912D020196A11DB11D80932A0229
:1007D00090932B02A0932C02B0932D02BF91AF9166
:1007E0009F918F913F912F910F900FBE0F901F906F
:1007F000189526E8230F0296A11DB11DD2CF1F9296
:100800000F920FB60F9211240BB60F922F933F93B6
:100810004F935F936F937F938F939F93AF93BF9308
:10082000EF93FF9383E392E00E94A402FF91EF9184
:10083000BF91AF919F918F917F916F915F914F91F8
:100840003F912F910F900BBE0F900FBE0F901F90F6
:1008500018951F920F920FB60F9211240BB60F929C
:100860002F938F939F93EF93FF93E0914302F09127
:1008700044028081E0914902F0914A0282FD1DC04C
:10088000908180914C028F5F8F7320914D0282176F
:1008900041F0E0914C02F0E0ED5CFD4F958F8093CC
:1008A0004C02FF91EF919F918F912F910F900BBE72
:1008B0000F900FBE0F901F9018958081F2CF789403
:1008C00084B5826084BD84B5816084BD85B5826055
:1008D00085BD85B5816085BD80916E008160809306
:1008E0006E0010928100809181008260809381006F
:1008F000809181008160809381008091800081607F
:10090000809380008091B10084608093B1008091D9
:10091000B00081608093B0008091910082608093EC
:10092000910080919100816080939100809190006E
:100930008160809390008091A10082608093A100EB
:100940008091A10081608093A1008091A0008160CE
:100950008093A00080912101826080932101809189
:100960002101816080932101809120018160809329
:10097000200180917A00846080937A0080917A00CF
:10098000826080937A0080917A00816080937A00FF
:1009900080917A00806880937A001092C1000E9452
:1009A0008C01E0914302F091440282E08083E09167
:1009B0003F02F09140021082E0914102F091420228
:1009C0008FEC808310924B02E0914702F091480235
:1009D00086E08083E0914502F0914602808180614B
:1009E0008083E0914502F091460280818860808397
:1009F000E0914502F0914602808180688083E09119
:100A00004502F091460280818F7D8083CCEAD1E05F
:100A100080E4382E8FB7F89440902F025090300227
:100A200060903102709032028FBF809126029091C7
:100A30002702A0912802B0912902A3019201281B4C
:100A4000390B4A0B5B0BDA01C9010297A105B1050D
:100A500098F14092260250922702609228027092EA
:100A60002902C301B2010E944A0820E030E04AE7AF
:100A700054E40E94A2072BED3FE049E451E40E94B8
:100A800001090E946E0920E030E040E85FE30E9427
:100A9000310720E030E04FEF52E40E9401090E944C
:100AA00014086B018B010E948C01C114D10409F060
:100AB00055C080E00E94A8018091220290912302FB
:100AC000A0912402B0912502A3019201281B390BA9
:100AD0004A0B5B0BDA01C9010A97A105B105D8F1F0
:100AE00040922202509223026092240270922502C8
:100AF00080917B00877F80937B0030927C00809187
:100B00007A00806480937A0080917A0086FDFCCF21
:100B10006091780070917900072E000C880B990B7A
:100B20000E944C082AE038E240EA5BE30E94010997
:100B30006B017C012B013C01AC019B010E947609F9
:100B4000882309F4CCC082E192E00E9464038EE124
:100B500092E00E9464030E9433035CCF0F3F1105B3
:100B600011F481E0A7CFFE018491EFEFE80FE231AD
:100B700008F0B0C0F0E08827EF53FA4F8F4F0C9485
:100B8000250AD305D805DD05E705F1056A06FB054D
:100B900003060B0615061F062906380642066A06D6
:100BA0004C065606600684B5806884BDC7BC84CFF9
:100BB00084B5806284BDC8BC7FCF8091800080688E
:100BC00080938000D0928900C092880075CF809178
:100BD0008000806280938000D0928B00C0928A0057
:100BE0006BCF80918000886080938000D0928D00D0
:100BF000C0928C0061CF8091B00080688093B0007B
:100C0000C092B30059CF8091B00080628093B00051
:100C1000C092B40051CF8091900080688093900082
:100C2000D0929900C092980047CF80919000806246
:100C300080939000D0929B00C0929A003DCF80910B
:100C40009000886080939000D0929D00C0929C009C
:100C500033CF8091A00080688093A0008091A00095
:100C60008F7B8093A000D092A900C092A80024CFCF
:100C70008091A00080628093A000D092AB00C092CF
:100C8000AA001ACF8091A00088608093A000D09223
:100C9000AD00C092AC0010CF80912001806880939D
:100CA0002001D0922901C092280106CF8091200115
:100CB000806280932001D0922B01C0922A01FCCE49
:100CC00080912001886080932001D0922D01C092F4
:100CD0002C01F2CE003811050CF043CFEACE4601CC
:100CE0005701E894B7F82FEF3FEF4FE75FE7C501F3
:100CF000B4010E94760981110DC02FEF3FEF4FE73D
:100D00005FE7C501B4010E949D0718161CF486E137
:100D100092E01BCF2FEF3FEF4FE75FE4C701B60133
:100D20000E94FC0818161CF48AE192E00ECF2FEF07
:100D30003FEF4FE75FECC701B6010E949D0787FDBB
:100D4000F3CF20E030E0A901C701B6010E949D0762
:100D500087FF0BC06DE283E392E00E94C60226018A
:100D6000370177FA709477F870942AE037ED43EA08
:100D70005BE3C301B2010E9431072B013C010E94D9
:100D80001B086B017C010E944A089B01AC01C30156
:100D9000B2010E9430072B013C014AE0C701B601B5
:100DA0000E9471036EE283E392E00E94C60220E09B
:100DB00030E040E251E4C301B2010E9401092B017D
:100DC0003C010E941B086B01F12CE12C4AE0C70199
:100DD000B6010E947103C701B6010E944A089B0137
:100DE000AC01C301B2010E94300720E030E040E2D4
:100DF00051E40E9401090E941B0890E080E04AE053
:100E00000E947103A4CEE3E3F2E01382128288EE23
:100E100093E0A0E0B0E084839583A683B78384E069
:100E200092E09183808385EC90E09587848784ECC1
:100E300090E09787868780EC90E0918B808B81ECA7
:100E400090E0938B828B82EC90E0958B848B86EC88
:100E500090E0978B868B118E128E138E148E0895D0
:100E60005058BB27AA270E9448070C94C2080E942A
:100E7000B40838F00E94BB0820F039F49F3F19F401
:100E800026F40C94B1080EF4E095E7FB0C94AB0843
:100E9000E92F0E94D30858F3BA1762077307840733
:100EA000950720F079F4A6F50C94F5080EF4E0957A
:100EB0000B2EBA2FA02D0B01B90190010C01CA0114
:100EC000A0011124FF27591B99F0593F50F4503EBF
:100ED00068F11A16F040A22F232F342F4427585FB1
:100EE000F3CF469537952795A795F0405395C9F7C9
:100EF0007EF41F16BA0B620B730B840BBAF0915081
:100F0000A1F0FF0FBB1F661F771F881FC2F70EC01F
:100F1000BA0F621F731F841F48F4879577956795F2
:100F2000B795F7959E3F08F0B0CF9395880F08F0DE
:100F30009927EE0F9795879508950E94870808F4E2
:100F400081E008950E94B6070C94C2080E94BB0875
:100F500058F00E94B40840F029F45F3F29F00C9447
:100F6000AB0851110C94F6080C94B1080E94D308F8
:100F700068F39923B1F3552391F3951B550BBB27C8
:100F8000AA2762177307840738F09F5F5F4F220F0D
:100F9000331F441FAA1FA9F335D00E2E3AF0E0E804
:100FA00032D091505040E695001CCAF72BD0FE2F4E
:100FB00029D0660F771F881FBB1F261737074807E2
:100FC000AB07B0E809F0BB0B802DBF01FF2793589A
:100FD0005F4F3AF09E3F510578F00C94AB080C94AB
:100FE000F6085F3FE4F3983ED4F3869577956795CE
:100FF000B795F7959F5FC9F7880F911D96958795CF
:1010000097F90895E1E0660F771F881FBB1F6217ED
:1010100073078407BA0720F0621B730B840BBA0BAB
:10102000EE1F88F7E09508950E941B086894B1119F
:101030000C94F60808950E94DB0888F09F5798F0FA
:10104000B92F9927B751B0F0E1F0660F771F881FCD
:10105000991F1AF0BA95C9F714C0B13091F00E94E7
:10106000F508B1E008950C94F508672F782F8827CC
:10107000B85F39F0B93FCCF3869577956795B3950E
:10108000D9F73EF490958095709561957F4F8F4F7D
:101090009F4F0895E89409C097FB3EF49095809582
:1010A000709561957F4F8F4F9F4F9923A9F0F92F2E
:1010B00096E9BB279395F695879577956795B795AC
:1010C000F111F8CFFAF4BB0F11F460FF1BC06F5F92
:1010D0007F4F8F4F9F4F16C0882311F096E911C0A4
:1010E000772321F09EE8872F762F05C0662371F0C5
:1010F00096E8862F70E060E02AF09A95660F771FD9
:10110000881FDAF7880F9695879597F90895990FB4
:101110000008550FAA0BE0E8FEEF16161706E807C1
:10112000F907C0F012161306E407F50798F0621BE2
:10113000730B840B950B39F40A2661F0232B242BB7
:10114000252B21F408950A2609F4A140A6958FEFD6
:10115000811D811D089597F99F6780E870E060E028
:1011600008959FEF80EC089500240A941616170640
:1011700018060906089500240A9412161306140688
:1011800005060895092E0394000C11F4882352F0EB
:10119000BB0F40F4BF2B11F460FF04C06F5F7F4FA3
:1011A0008F4F9F4F089557FD9058440F551F59F08A
:1011B0005F3F71F04795880F97FB991F61F09F3F44
:1011C00079F087950895121613061406551FF2CF6D
:1011D0004695F1DF08C0161617061806991FF1CFBD
:1011E00086957105610508940895E894BB276627E4
:1011F0007727CB0197F908950E94870808F48FEFAD
:1012000008950E9414090C94C2080E94B40838F092
:101210000E94BB0820F0952311F00C94AB080C94AD
:10122000B10811240C94F6080E94D30870F3959F1E
:10123000C1F3950F50E0551F629FF001729FBB27CD
:10124000F00DB11D639FAA27F00DB11DAA1F649F69
:101250006627B00DA11D661F829F2227B00DA11D1C
:10126000621F739FB00DA11D621F839FA00D611DA2
:10127000221F749F3327A00D611D231F849F600DC3
:10128000211D822F762F6A2F11249F5750409AF0EC
:10129000F1F088234AF0EE0FFF1FBB1F661F771F78
:1012A000881F91505040A9F79E3F510580F00C9443
:1012B000AB080C94F6085F3FE4F3983ED4F38695B0
:1012C00077956795B795F795E7959F5FC1F7FE2BE3
:1012D000880F911D9695879597F908959F930E9481
:1012E0007D090F9007FCEE5F0C94A6090E94870809
:1012F000880B990B08950C94B1080E94DB08D8F371
:10130000E894E0E0BB279F57F0F02AED3FE049EC7E
:1013100006C0EE0FBB0F661F771F881F28F0B23A7A
:1013200062077307840728F0B25A620B730B840BB1
:10133000E3959A9572F7803830F49A95BB0F661F43
:10134000771F881FD2F790480C94BC09EF93E0FFF9
:1013500007C0A2EA2AED3FE049EC5FEB0E94480794
:101360000E94C2080F90039401FC9058E4EEF0E054
:101370000C94C8099F3F31F0915020F487957795E0
:101380006795B795880F911D9695879597F908955C
:101390009F938F937F936F93FF93EF939B01AC0188
:1013A0000E940109EF91FF910E94DC092F913F916A
:1013B0004F915F910C940109DF93CF931F930F938B
:1013C000FF92EF92DF927B018C01689406C0DA2EC7
:1013D000EF010E941409FE01E894A5912591359131
:1013E00045915591A6F3EF010E944807FE01970130
:1013F000A801DA9469F7DF90EF90FF900F911F91A9
:10140000CF91DF910895A1E21A2EAA1BBB1BFD010B
:101410000DC0AA1FBB1FEE1FFF1FA217B307E407D3
:10142000F50720F0A21BB30BE40BF50B661F771F2B
:10143000881F991F1A9469F760957095809590950B
:101440009B01AC01BD01CF010895EE0FFF1F881F66
:0E1450008BBF0790F691E02D1994F894FFCF12
:10145E0000000000C60230025D0213038E026C0211
:10146E0080026E616E00696E66006F7666000D0A10
:02147E0000006C
:00000001FF
